:100000000C9436000C945E000C945E000C945E0020
:100010000C945E000C945E000C945E000C945E00E8
:100020000C945E000C945E000C945E000C945E00D8
:100030000C945E000C945E000C945E000C945E00C8
:100040000C9457020C945E000C9425020C94FF0152
:100050000C945E000C945E000C945E000C945E00A8
:100060000C945E000C945E00A102E50611241FBEF4
:10007000CFEFD8E0DEBFCDBF11E0A0E0B1E0E2EC11
:10008000F3E102C005900D92AA35B107D9F72AE332
:10009000AAE5B1E001C01D92A038B207E1F710E077
:1000A000C5E3D0E004C02197FE010E942307C433BA
:1000B000D107C9F70E9438030C94D4090C940000AE
:1000C0002FB7F89480916A1590916B15A0916C15DB
:1000D000B0916D152FBF8093761590937715A093EF
:1000E0007815B0937915E0916E15F0916F15068033
:1000F000F781E02D8EE695E1099597FF26C02FB791
:10010000F89480916A1590916B15A0916C15B0913F
:100110006D152FBF40917615509177156091781528
:1001200070917915841B950BA60BB70B4091721536
:10013000509173156091741570917515841795071A
:10014000A607B70780F28FEF9FEF0895CF92DF9257
:10015000EF92FF920F931F93CF93DF936C017A017D
:100160008B01C0E0D0E0CE15DF0589F0D8016D919C
:100170008D01D601ED91FC910190F081E02DC60139
:100180000995892B11F47E0102C02196ECCFC7019D
:10019000DF91CF911F910F91FF90EF90DF90CF9063
:1001A0000895FC01918D828D981761F0828DDF0199
:1001B000A80FB11D5D968C91928D9F5F9F73928F5A
:1001C00090E008958FEF9FEF0895FC01918D828D4F
:1001D000981731F0828DE80FF11D858D90E008951C
:1001E0008FEF9FEF0895FC01918D228D892F90E074
:1001F000805C9F4F821B91098F73992708958EE62B
:1002000095E10E94F30021E0892B09F420E0822F80
:100210000895FC01848DDF01A80FB11DA35ABF4FC3
:100220002C91848D90E001968F739927848FA689F5
:10023000B7892C93A089B1898C9180648C93938D1C
:10024000848D981306C00288F389E02D80818F7D0C
:1002500080830895EF92FF920F931F93CF93DF93C4
:10026000EC0181E0888F9B8D8C8D981305C0E88907
:10027000F989808185FD24C0F62E0B8D10E00F5F7B
:100280001F4F0F731127E02E8C8DE8120CC00FB694
:1002900007FCFACFE889F989808185FFF5CFCE0187
:1002A0000E940901F1CF8B8DFE01E80FF11DE35A89
:1002B000FF4FF0820B8FEA89FB898081806207C043
:1002C000EE89FF896083E889F98980818064808371
:1002D00081E090E0DF91CF911F910F91FF90EF901F
:1002E0000895CF93DF93EC01888D8823C9F0EA89C4
:1002F000FB89808185FD05C0A889B9898C9186FD1F
:100300000FC00FB607FCF5CF808185FFF2CFA8891B
:10031000B9898C9185FFEDCFCE010E940901E7CF0D
:10032000DF91CF91089580E090E0892B29F00E9421
:10033000FF0081110C940000089508950895CF9254
:10034000DF92EF92FF92CF93DF938FB7F8942091D3
:100350006A1530916B1540916C1550916D158FBFDA
:10036000A8EEB3E00E94BA096B017C013FB7F89494
:1003700080915A0190915B01A0915C01B0915D0167
:1003800026B5A89B05C02F3F19F00196A11DB11DF0
:100390003FBFBA2FA92F982F8827820F911DA11D2B
:1003A000B11DBC01CD0142E0660F771F881F991F68
:1003B0004A95D1F728EE33E040E050E00E94E6068F
:1003C0009B01AC012C0D3D1D4E1D5F1DA4E6B0E050
:1003D0000E94BA09DC01CB019C01AD0160E070E034
:1003E00080E090E0DF91CF91FF90EF90DF90CF9091
:1003F00008950E94FE080C9466080C9466081F92EB
:100400000F920FB60F9211242F933F934F935F9348
:100410006F937F938F939F93AF93BF93EF93FF93CC
:100420008EE695E10E940901FF91EF91BF91AF9196
:100430009F918F917F916F915F914F913F912F91FC
:100440000F900FBE0F901F9018951F920F920FB62E
:100450000F9211242F938F939F93EF93FF93E0912B
:100460007E15F0917F158081E0918415F0918515BE
:1004700082FD12C09081809187158F5F8F732091CC
:100480008815821751F0E0918715F0E0E259FA4E95
:10049000958F8093871501C08081FF91EF919F9187
:1004A0008F912F910F900FBE0F901F9018951F9254
:1004B0000F920FB60F9211242F933F938F939F9318
:1004C000AF93BF9380916A1590916B15A0916C15B5
:1004D000B0916D1530915E0123E0230F2D3720F48C
:1004E0000196A11DB11D05C026E8230F0296A11D8E
:1004F000B11D20935E0180936A1590936B15A093B4
:100500006C15B0936D1580915A0190915B01A0918B
:100510005C01B0915D010196A11DB11D80935A014E
:1005200090935B01A0935C01B0935D01BF91AF918B
:100530009F918F913F912F910F900FBE0F901F9021
:100540001895EEE6F5E11382128288EE93E0A0E0C2
:10055000B0E084839583A683B7838DE391E0918394
:10056000808385EC90E09587848784EC90E0978782
:10057000868780EC90E0918B808B81EC90E0938B70
:10058000828B82EC90E0958B848B86EC90E0978B4D
:10059000868B118E128E138E148EEBE0F6E185E5BC
:1005A00091E09183808380E090E0A0E8BFE387A39F
:1005B00090A7A1A7B2A783A794A7A5A7B6A717A698
:1005C00010AA11AA12AA83AB94ABA5ABB6AB87ABAA
:1005D00090AFA1AFB2AF13AE14AE15AE16AE80930E
:1005E0004A1690934B16A0934C16B0934D168093D9
:1005F0004E1690934F16A0935016B093511610922A
:10060000521610925316109254161092551680934B
:10061000561690935716A0935816B0935916809378
:100620005A1690935B16A0935C16B0935D161092C9
:100630005E1610925F16109260161092611680E29C
:10064000E6E0F1E0A2E6B6E101900D928A95E1F7CD
:1006500080E2E6E0F1E0A2E8B6E101900D928A9531
:10066000E1F78DE491E09093C7168093C616089544
:10067000CF93DF93CDB7DEB76D970FB6F894DEBF9B
:100680000FBECDBF789484B5826084BD84B581608F
:1006900084BD85B5826085BD85B5816085BD80914D
:1006A0006E00816080936E001092810080918100C5
:1006B00082608093810080918100816080938100BD
:1006C000809180008160809380008091B10084607F
:1006D0008093B1008091B00081608093B0008091E0
:1006E0007A00846080937A0080917A00826080939F
:1006F0007A0080917A00816080937A0080917A00FC
:10070000806880937A001092C100E0917E15F0918C
:100710007F1582E08083E0917A15F0917B1510823D
:10072000E0917C15F0917D158FEC808310928615F9
:10073000E0918215F091831586E08083E091801529
:10074000F0918115808180618083E0918015F09126
:100750008115808188608083E0918015F0918115FA
:10076000808180688083E0918015F091811580817F
:100770008F7D808385E691E19093793A8093783AF2
:1007800090937B3A80937A3A8FE591E09093753A13
:100790008093743A9093773A8093763A9E01235FE0
:1007A0003F4F3E872D873EEE632E77247A9447E4B1
:1007B000542E8EE695E10E94F30005979CF18EE69B
:1007C00095E10E94D1008F3F910561F58EE695E19C
:1007D0000E94E5008E3E910529F58CC2D8018D93CB
:1007E0008D01ED85FE85AE17BF0721F00E946000E8
:1007F00097FFF4CF888599858334910509F4A0C2C9
:100800000CF080C28134910569F47A8269829C83FC
:100810008B8347E050E0BE016F5F7F4F8EE695E12E
:100820000E94A60080912E1690912F16039709F032
:100830005EC20E949F0159016A017B018C01609197
:10084000CA167091CB16788F6F8B20906C3A3090CF
:100850006D3A40906E3A70916F3A798F8091703A0C
:100860008A8F9091713A9B8FA091723AAC8FB09120
:10087000733ABD8FEF89F88D5E9EC0015F9E900D2B
:1008800011249C01255F394E4901F901E851FF4FC0
:10089000E081F0E0EA5DFE4FA081F901E751FF4FF2
:1008A0002081318142815381B0E00E94BA0924E65F
:1008B00030E040E050E00E94E606BA01A90180E085
:1008C00090E0DC014F87588B698B7A8B8B8B9C8BEC
:1008D000AD8BBE8B9501A601B701C8015101C42C97
:1008E000D98CEA8CFB8C0C8D1D8D0E941107AF8476
:1008F000B888C988DA88E12CF12C00E010E00E9469
:100900001A0708F416C19501A60160E070E080E0C6
:1009100090E05101C42CD98CEA8CFB8C0C8D1D8D80
:100920000E94080720936C3A30936D3A40936E3AD8
:1009300050936F3A6093703A7093713A8093723A21
:100940009093733AE091743AF091753A8081918175
:10095000019691838083F401E351FF4F208131811F
:1009600082179307A0F13091503A2091513A309379
:10097000603A2093613A10924D3A10924C3A30937B
:100980005E3A20935F3A10925D3A10925C3A832F60
:10099000922F97FD0196959587959195819591094F
:1009A0009093633A8093623A7A82698282E490E01B
:1009B0009C838B83A1E1B0E0BF83AE8347E050E02E
:1009C000BE016F5F7F4F8EE695E10E94A600A09169
:1009D000743AB091753A2F89388D529EF001539E2A
:1009E000F00D1124E550F94E2D913C9180819181BB
:1009F0002817390708F49DC0E090503AF090513A1A
:100A00008091CA169091CB16589E8001599E100D68
:100A10001124055F194EF801EF53FF4F808191813A
:100A20008330910541F154F48130910571F00297C2
:100A300009F07BC0F801EC50FF4F27C084309105CE
:100A400061F1059709F458C070C0F801EC5FFE4FE2
:100A500020E030E0A90160817181828193810E9450
:100A6000CC07181624F43FEFE31AF30A5EC041E006
:100A7000E41AF1085AC0F801EA5FFE4F808151E0A4
:100A800085278083882321F07297E080F1804DC014
:100A900068016CEFC60ED11C0DC0F801EA5FFE4F75
:100AA000808121E082278083A8014C505F4F6A013A
:100AB0008823C9F0D601ED90FC90B7010F2C000CF3
:100AC000880B990B0E940A09F801EA50FF4F208118
:100AD0003181428153810E942A070E949607F601C4
:100AE0007183608322C0F801E650FF4FDA01ED9078
:100AF000FC908081918110C0F801F3958081B1E074
:100B00008B278083D801A650BF4F3897882339F0B0
:100B1000E080F1808D919C91E80EF91E06C0E08086
:100B2000F1808D919C91E81AF90AF092513AE09285
:100B3000503A0E949F01A091CA16B091CB165A9EBE
:100B400080015B9E100D1124055F194EF801EF53D3
:100B5000FF4F0190F081E02DE130F105B1F11CF47F
:100B6000EF2B21F0C4C037970CF0C1C05A9EF001A2
:100B70005B9EF00D1124E55FF94EDF01A153BF4FDD
:100B8000AC901196BC9011971296CC901297139638
:100B9000DC9013971496EC9014971596FC9015978B
:100BA00016960C91169717961C910E941107E15208
:100BB000FF4FA080B180C280D380E480F5800681A1
:100BC00017810E941A07E8F592C0F801EC5FFE4F0A
:100BD000C080D180E280F38020E030E0A901C7012D
:100BE000B6010E94CC0718166CF4F801E650FF4FCE
:100BF0002091503A3091513A8081918128173907DC
:100C000004F516C020E030E0A901C701B6010E943A
:100C1000030987FF6CC0F801E650FF4F2091503A5E
:100C20003091513A808191818217930754F45FC0CB
:100C300020E030E0A901C701B6010E94030987FF47
:100C400056C00E949F012090CA163090CB16529C2D
:100C5000D001539CB00D1124A55FB94E8D010C53EA
:100C60001F4FF8011081112309F495C08D01055320
:100C70001F4FF801C080D180E280F380FFEFCF1AD0
:100C8000DF0AEF0AFF0AF801C082D182E282F38212
:100C900004501109F80180809180A280B380C814AB
:100CA000D904EA04FB0408F076C0AB53BF4FED91C2
:100CB000FC91F093CB16E093CA165E9ED0015F9E26
:100CC000B00D1124A55FB94EFD01E153FF4F208304
:100CD0003183428353836483758386839783AF53C1
:100CE000BF4F8D919C918B30910508F457C00E94A5
:100CF00093015FCD8EE695E10E94D1008E01085FE1
:100D00001F4F74CD8A34910599F18B34910509F008
:100D100089CD0E949F011092CB161092CA16209383
:100D2000DA163093DB164093DC165093DD16609391
:100D3000DE167093DF168093E0169093E11672CD65
:100D40007A82698224E430E03C832B8344E950E0DA
:100D50005F834E8347E050E0BE016F5F7F4F8EE6BA
:100D600095E10E94A60044E950E062E376E156CDA9
:100D7000EB84FC8400E010E00E151F0509F452CD51
:100D80000E94600097FD4ECDF801E453F94E808338
:100D90000F5F1F4FF1CFF10131968BCFFC01E25D68
:100DA000FE4F8081863009F0A2CF7A82698227E4E3
:100DB00030E03C832B8347E050E0BE016F5F7F4F04
:100DC0008EE695E10E94A60092CF0895A1E21A2E28
:100DD000AA1BBB1BFD010DC0AA1FBB1FEE1FFF1FDF
:100DE000A217B307E407F50720F0A21BB30BE40B2F
:100DF000F50B661F771F881F991F1A9469F7609576
:100E00007095809590959B01AC01BD01CF0108952F
:100E10002A0D3B1D4C1D5D1D6E1D7F1D801F911FEA
:100E200008952A193B094C095D096E097F09800B59
:100E3000910B08952A153B054C055D056E057F0550
:100E4000800791070895EE0FFF1F0590F491E02DA4
:100E500009945058BB27AA270E9441070C94800987
:100E60000E94720938F00E94790920F039F49F3FFE
:100E700019F426F40C946F090EF4E095E7FB0C943A
:100E80006909E92F0E94910958F3BA17620773079D
:100E90008407950720F079F4A6F50C94B3090EF4B5
:100EA000E0950B2EBA2FA02D0B01B90190010C017A
:100EB000CA01A0011124FF27591B99F0593F50F492
:100EC000503E68F11A16F040A22F232F342F4427EA
:100ED000585FF3CF469537952795A795F0405395E2
:100EE000C9F77EF41F16BA0B620B730B840BBAF0B2
:100EF0009150A1F0FF0FBB1F661F771F881FC2F71D
:100F00000EC0BA0F621F731F841F48F48795779530
:100F10006795B795F7959E3F08F0B0CF9395880FEA
:100F200008F09927EE0F9795879508950E949D07E1
:100F30006894B1110C94B40908950E94990988F03D
:100F40009F5798F0B92F9927B751B0F0E1F0660F8D
:100F5000771F881F991F1AF0BA95C9F714C0B130CE
:100F600091F00E94B309B1E008950C94B309672F82
:100F7000782F8827B85F39F0B93FCCF386957795FD
:100F80006795B395D9F73EF49095809570956195E6
:100F90007F4F8F4F9F4F08950E94450908F48FEFB0
:100FA0000895CF93DF938230910510F482E090E0B2
:100FB000E0917E3AF0917F3A20E030E0C0E0D0E06E
:100FC000309711F14081518148175907C0F04817F7
:100FD000590761F482819381209719F09B838A835A
:100FE0002BC090937F3A80937E3A26C0211531051D
:100FF00019F04217530718F49A01BE01DF01EF01FF
:101000000280F381E02DDCCF2115310509F1281B89
:10101000390B2430310590F412968D919C911397E1
:101020006115710521F0FB019383828304C09093C5
:101030007F3A80937E3AFD01329644C0FD01E20F73
:10104000F31F81939193225031092D933C933AC021
:1010500020917C3A30917D3A232B41F4209102017A
:101060003091030130937D3A20937C3A2091000126
:10107000309101012115310541F42DB73EB7409162
:10108000040150910501241B350BE0917C3AF0914D
:101090007D3AE217F307A0F42E1B3F0B2817390700
:1010A00078F0AC014E5F5F4F2417350748F04E0FC4
:1010B0005F1F50937D3A40937C3A8193919302C095
:1010C000E0E0F0E0CF01DF91CF9108950F931F93FF
:1010D000CF93DF93009709F48CC0FC013297138201
:1010E000128200917E3A10917F3A0115110581F428
:1010F00020813181820F931F20917C3A30917D3A7B
:101100002817390779F5F0937D3AE0937C3A71C05E
:10111000D80140E050E0AE17BF0750F412962D9171
:101120003C911397AD012115310509F1D901F3CF98
:101130009D01DA013383228360817181860F971FBD
:101140008217930769F4EC0128813981260F371F34
:101150002E5F3F4F318320838A819B8193838283DB
:10116000452B29F4F0937F3AE0937E3A42C01396E0
:10117000FC93EE931297ED01499159919E01240F32
:10118000351FE217F30771F480819181840F951F59
:10119000029611969C938E938281938113969C93D1
:1011A0008E931297E0E0F0E0D80112968D919C9119
:1011B0001397009719F0F8018C01F6CF8D919C914F
:1011C00098012E5F3F4F820F931F20917C3A309100
:1011D0007D3A2817390769F4309729F410927F3A3D
:1011E00010927E3A02C01382128210937D3A0093CD
:1011F0007C3ADF91CF911F910F91089581E090E0AB
:10120000F8940C94D4090E94450908F481E00895EB
:10121000E89409C097FB3EF4909580957095619590
:101220007F4F8F4F9F4F9923A9F0F92F96E9BB2746
:101230009395F695879577956795B795F111F8CFC2
:10124000FAF4BB0F11F460FF1BC06F5F7F4F8F4F2D
:101250009F4F16C0882311F096E911C0772321F023
:101260009EE8872F762F05C0662371F096E8862FBB
:1012700070E060E02AF09A95660F771F881FDAF712
:10128000880F9695879597F90895990F0008550F3F
:10129000AA0BE0E8FEEF16161706E807F907C0F0FC
:1012A00012161306E407F50798F0621B730B840B04
:1012B000950B39F40A2661F0232B242B252B21F4DE
:1012C00008950A2609F4A140A6958FEF811D811D7E
:1012D000089597F99F6780E870E060E008959FEFB8
:1012E00080EC089500240A941616170618060906BD
:1012F000089500240A94121613061406050608958C
:10130000092E0394000C11F4882352F0BB0F40F413
:10131000BF2B11F460FF04C06F5F7F4F8F4F9F4F53
:10132000089557FD9058440F551F59F05F3F71F0D5
:101330004795880F97FB991F61F09F3F79F087953C
:101340000895121613061406551FF2CF4695F1DFC5
:1013500008C0161617061806991FF1CF8695710555
:10136000610508940895E894BB2766277727CB0189
:1013700097F908950E94C509A59F900DB49F900DFF
:10138000A49F800D911D11240895A29FB001B39FC9
:10139000C001A39F700D811D1124911DB29F700D7E
:1013A000811D1124911D089510E0C5E3D0E004C013
:1013B000FE010E9423072196C633D107C9F7F8948E
:0213C000FFCF5D
:1013C2000000803A80000000803FCDCCCC3D0AD79F
:1013D200233C6F12833A17B7D138ACC52737BD37D4
:1013E200863595BFD633010204081020400002035F
:1013F200030303030304040406000000002A01A6F9
:1014020000F300D100E5007101000000009D01FB26
:0A14120001000000009E01FD010032
:00000001FF
